:101800003BC06FC054C053C052C051C050C04FC045
:101810004EC04DC04CC04BC04AC049C048C047C074
:1018200046C045C044C009021200010100803209CF
:10183000040000000000000012011001FF00000879
:10184000C016DC050201010200010E035500530021
:1018500042006100730070001C037700770077007E
:101860002E00660069007300630068006C002E00A3
:10187000640065000403090411241FBECFE5D4E011
:10188000DEBFCDBF10E0A0E6B0E0E4E5FFE102C0BE
:1018900005900D92A636B107D9F720E0A6E6B0E094
:1018A00001C01D92AC39B207E1F753D151C3A8CFA3
:1018B000A82FB92F80E090E041E050EA609530E039
:1018C00009C02D9182279795879510F08427952739
:1018D000305EC8F36F5FA8F30895EADF8D939D93A0
:1018E0000895CF93CFB7CF93C395839BE9F7839B9D
:1018F00009C0839B07C0839B05C0839B03C0839B58
:1019000001C0A1C0DF93C0917F00DD27CA57DF4F20
:10191000839B02C0DF91EBCF2F930F931F9300B3F4
:101920002FEF03FB20F94F933F9310B34FEF0127A5
:1019300003FB21F93BE031C04E7F012F10B3216042
:1019400028C0102F4D7F2260000000B329C04B7FBC
:101950002460012F000010B32BC010B3477F286014
:101960002AC04F7E00B320612CC04F7D10B320628F
:101970002FC04F7B00B3206432C0422700B349938D
:101980004FEF0000102713FB20F910B31C70C9F1B2
:10199000297F91F2012703FB21F900B3237F89F20C
:1019A000315058F1102713FB22F910B3277E79F23A
:1019B000012703FB23F92F7C81F200B3102713FBCF
:1019C00024F92F7971F200C010B3012703FB25F928
:1019D0002F7359F200C000B3102713FB26F92230F1
:1019E00040F200C010B3012703FB27F9243028F68A
:1019F0004F77206810B30000F9CF10E41ABF00271A
:101A000017C03B503195C31BD04010E41ABF08816A
:101A1000033CE9F00B34D9F020917D001981110FBE
:101A20001213EDCF093641F10D3211F0013E39F7B5
:101A3000009384003F914F911F910F912F91DF915F
:101A4000CAB7C6FD51CFCF91CFBFCF911895209186
:101A50008400222379F310918200112311F5343090
:101A600012F13093820020937E0010917F003BE0C2
:101A7000311B30937F0017C00091820001308CF43D
:101A80000AE53091600034FD10C000936000C2E7A9
:101A9000D0E00FC02795A8F45150A9F4220F000000
:101AA000F9CF4AE503C042ED01C0432FC4E1D0E0C5
:101AB00032E011B31C60939A11BB02B320E41CE026
:101AC0005F93012756E002BB279520F4515021F483
:101AD000220FF9CF012756E000003B5A02BBD0F29B
:101AE000279528F4515029F4220F0000F9CF01273F
:101AF00056E0279502BB20F4515021F4220FF9CF74
:101B0000012756E02991332302BB21F6037F109170
:101B10008300110FC651D04002BB11F010937D001D
:101B200010E41ABF086011B3137F402F437F5F9109
:101B300000C000C002BB11BB42BB7CCFF8941BBEEF
:101B400015BE81E08BBF1BBEE0917000F09171006B
:101B5000099588E10FB6F89481BD11BC0FBE84B71A
:101B6000882319F004B601FE0EC014BE81E08BBFBD
:101B700082E08BBF85B7826085BF8BB780648BBFE7
:101B80008B9A80E008C0DADFA895E7EBFBE031979D
:101B9000F1F700C000008150B9F78B98789410E0FD
:101BA00000E020918200235027FD3CC180917F00FE
:101BB000CCE0D0E0C81BD109CA57DF4F80917E002E
:101BC0008D3209F0C3C0283009F02AC183EC80931C
:101BD00072008AE5809360001092670088818076A9
:101BE0002981882309F442C088E690E0909381001F
:101BF000809380002330C9F49B818C812A8120331B
:101C000039F48370E82FF0E0EE59FF4F808109C06E
:101C1000203A11F488D105C0203C11F46D818BD19C
:101C200080E080936B0024E087C02530E9F0822FAC
:101C30008450863090F48A819B8190936D008093CC
:101C40006C00293009F40EC08E8180936E008D8166
:101C5000827080936F002FEF68C0223019F481E00A
:101C60008093660020E068C021E066C08A811092FF
:101C70007B00211106C010927C008BE790E022E0EF
:101C80004EC0253019F4809383003DC02630A9F55D
:101C90009B81913019F488E398E104C0923041F4BB
:101CA00086E298E1909381008093800022E121C038
:101CB0009330F1F4811108C084E798E1909381009A
:101CC0008093800024E015C0813041F488E598E1DC
:101CD00090938100809380002CE10BC0823041F40E
:101CE0008AE498E190938100809380002EE001C007
:101CF00020E080E48093670016C0283069F0293026
:101D000029F4809385008BE790E004C08BE790E096
:101D10002A3021F020E003C085E890E021E0909394
:101D20008100809380002F3F39F4888187FD2E81C8
:101D300080E88093670007C08F81811104C08E8185
:101D4000821708F4282F209361006AC080916700F1
:101D500087FF66C080916E00821708F4282F821BCF
:101D600080936E0031E0811130E0DE0150C080913F
:101D70006C0090916D008F739927892BE1F0F89496
:101D8000E0916C00F0916D008D919D9151E00C01FE
:101D900050935700E8951124789480916C009091AD
:101DA0006D00029690936D0080936C008F7399275D
:101DB000892BC9F00EC0F894E0916C00F0916D0091
:101DC00083E080935700E895789407B600FCFDCF38
:101DD000D6CF3323E1F08A2F841B8217C0F0809185
:101DE0006F008823A1F0F894E0916C00F0916D00F1
:101DF000329785E080935700E895789407B600FC09
:101E0000FDCFF89481E180935700E89578944C2FAA
:101E10008A2F8C1B821708F4AACF3111109261000F
:101E2000109282008091600084FF67C08091610001
:101E30008F3F09F462C0C82F893008F0C8E08C1BBE
:101E4000809361008091720098E8892780937200E6
:101E5000CC2309F441C08091670087FF1FC08091A7
:101E60006E008C1708F4C82F8C1B80936E00E091D5
:101E70006C00F0916D00A3E7B0E003C0E491ED9336
:101E8000FC01CF01019623E730E04A2F421B4C179B
:101E9000A8F3F0936D00E0936C001CC0E09180000B
:101EA000F0918100A3E7B0E086FF09C084918D9393
:101EB000319683E790E08C0F8A13F8CF07C08191A9
:101EC0008D9383E790E08C0F8A13F9CFF093810014
:101ED000E0938000C93058F46C2F83E790E0FDDC7C
:101EE000CC5FCC3041F08FEF8093610004C08FEF66
:101EF00080936100CEE1C093600084E190B39C7058
:101F000031F48150D9F71092830010927D008091B6
:101F10006600882309F445CE015009F042CE1150E5
:101F200009F03FCE30CEE199FECF9FBB8EBBE09A49
:101F300099278DB30895262FE199FECF9FBB8EBBC5
:101F40002DBB0FB6F894E29AE19A0FBE0196089560
:041F5000F894FFCF33
:061F54005AFF1E93070076
:0400000300001800E1
:00000001FF
