:101800003BC06FC054C053C052C051C050C04FC045
:101810004EC04DC04CC04BC04AC049C048C047C074
:1018200046C045C044C009021200010100803209CF
:10183000040000000000000012011001FF00000879
:10184000C016DC050201010200010E035500530021
:1018500042006100730070001C037700770077007E
:101860002E00660069007300630068006C002E00A3
:10187000640065000403090411241FBECFE5D4E011
:10188000DEBFCDBF10E0A0E6B0E0ECE8FFE102C0B3
:1018900005900D92A636B107D9F720E0A6E6B0E094
:1018A00001C01D92AC39B207E1F76FD16DC3A8CF6B
:1018B000A82FB92F80E090E041E050EA609530E039
:1018C00009C02D9182279795879510F08427952739
:1018D000305EC8F36F5FA8F30895EADF8D939D93A0
:1018E0000895CF93CFB7CF93C395839BE9F7839B9D
:1018F0000BC0839B09C0839B07C0839B05C0839B50
:1019000003C0839B01C0C0C0C0917F00DF93DD276F
:10191000CA57DF4F2F932FEF839B03C02F91DF9187
:10192000E6CF0F931F934F936F9300B303FB20F900
:101930003F933BE05F931EC04E7F012F10B31C709E
:10194000E1F0216000001DC0102F4D7F22600000DB
:1019500000B30C7091F01DC04B7F2460012F00007C
:1019600010B31C7051F01EC010B31C7031F0477FD3
:1019700028601BC010B31C7009F462C04FEF297FB0
:10198000D9F2012703FB21F900B30C70B1F3237FD7
:10199000D9F2102713FB22F900C010B31C7069F3B1
:1019A000277ED1F2012703FB23F92F7CE9F200B354
:1019B0000C7019F3102713FB24F92F7929F100C0BB
:1019C00010B31C70E9F1012703FB25F92F7311F106
:1019D00000C000B30C70A1F1102713FB26F92230D0
:1019E000F8F000C010B31C7059F1012703FB27F970
:1019F0002430E0F04227000000B34993102713FB86
:101A000020F93150C8F0B6CF4F7E00B30C70C1F052
:101A10002061D3CF206210B31C7091F04F7DD6CFE0
:101A20004F7B00B30C7061F02064D9CF4F7710B3B7
:101A30001C7031F02068DCCF10E41ABF002717C0FB
:101A40003B503195C31BD04010E41ABF0881033CC2
:101A5000F9F00B34E9F020917D001981110F121378
:101A6000EDCF093651F10D3211F0013E39F70093F7
:101A700084005F913F916F914F911F910F912F9132
:101A8000DF91CAB7C6FD30CFCF91CFBFCF911895A8
:101A900020918400222369F310918200112331F5F3
:101AA000343032F13093820020937E0010917F0019
:101AB0003BE0311B30937F001BC00091820001305E
:101AC000ACF40AE53091600034FD13C0009360006F
:101AD000C2E7D0E012C005271127000019C0052772
:101AE00011271FC005271127000024C04AE502C0A6
:101AF00032ED432FC4E1D0E032E011B31C60939A81
:101B000002B311BB5CE020E866E020FF05272795C3
:101B100002BB17951C3FF8F66A95B9F720FF052719
:101B20002795000002BB17951C3FC8F620FF05272C
:101B30002795179566E01C3F02BBA0F629913A95C0
:101B400021F7037F10918300110F02BBC651D040D3
:101B500011F010937D0010E41ABF086011B3137FD9
:101B6000402F437F53E05A95F1F700C002BB11BBF1
:101B700042BB7FCFF8941BBE15BE81E08BBF1BBE5E
:101B8000E0917000F0917100099588E10FB6F8942A
:101B900081BD11BC0FBE84B7882319F004B601FEC5
:101BA0000EC014BE81E08BBF82E08BBF85B7826020
:101BB00085BF8BB780648BBF8B9A80E008C0DADF6B
:101BC000A895E5EAFEE03197F1F700C000008150EA
:101BD000B9F78B98789410E000E0209182002350B0
:101BE00027FD3CC180917F00CCE0D0E0C81BD1092B
:101BF000CA57DF4F80917E008D3209F0C3C0283074
:101C000009F02AC183EC809372008AE5809360001A
:101C100010926700888180762981882309F442C068
:101C200088E690E090938100809380002330C9F48F
:101C30009B818C812A81203339F48370E82FF0E076
:101C4000EE59FF4F808109C0203A11F488D105C0B8
:101C5000203C11F46D818BD180E080936B0024E0F7
:101C600087C02530E9F0822F8450863090F48A8135
:101C70009B8190936D0080936C00293009F40EC015
:101C80008E8180936E008D81827080936F002FEF24
:101C900068C0223019F481E08093660020E068C0BB
:101CA00021E066C08A8110927B00211106C010924B
:101CB0007C008BE790E022E04EC0253019F4809341
:101CC00083003DC02630A9F59B81913019F488E34B
:101CD00098E104C0923041F486E298E1909381004B
:101CE0008093800022E121C09330F1F4811108C07B
:101CF00084E798E1909381008093800024E015C0F0
:101D0000813041F488E598E19093810080938000D0
:101D10002CE10BC0823041F48AE498E19093810079
:101D2000809380002EE001C020E080E48093670073
:101D300016C0283069F0293029F4809385008BE79C
:101D400090E004C08BE790E02A3021F020E003C04F
:101D500085E890E021E090938100809380002F3F00
:101D600039F4888187FD2E8180E88093670007C061
:101D70008F81811104C08E81821708F4282F20934F
:101D800061006AC08091670087FF66C080916E0025
:101D9000821708F4282F821B80936E0031E0811196
:101DA00030E0DE0150C080916C0090916D008F7327
:101DB0009927892BE1F0F894E0916C00F0916D0087
:101DC0008D919D9151E00C0150935700E89511249D
:101DD000789480916C0090916D00029690936D00C4
:101DE00080936C008F739927892BC9F00EC0F894EB
:101DF000E0916C00F0916D0083E080935700E895CE
:101E0000789407B600FCFDCFD6CF3323E1F08A2FBC
:101E1000841B8217C0F080916F008823A1F0F89492
:101E2000E0916C00F0916D00329785E0809357004F
:101E3000E895789407B600FCFDCFF89481E1809393
:101E40005700E89578944C2F8A2F8C1B821708F442
:101E5000AACF31111092610010928200809160002F
:101E600084FF67C0809161008F3F09F462C0C82F72
:101E7000893008F0C8E08C1B80936100809172006B
:101E800098E8892780937200CC2309F441C080919F
:101E9000670087FF1FC080916E008C1708F4C82F61
:101EA0008C1B80936E00E0916C00F0916D00A3E7B5
:101EB000B0E003C0E491ED93FC01CF01019623E76C
:101EC00030E04A2F421B4C17A8F3F0936D00E093CB
:101ED0006C001CC0E0918000F0918100A3E7B0E0AD
:101EE00086FF09C084918D93319683E790E08C0F33
:101EF0008A13F8CF07C081918D9383E790E08C0F10
:101F00008A13F9CFF0938100E0938000C93058F430
:101F10006C2F83E790E0E1DCCC5FCC3041F08FEFB9
:101F20008093610004C08FEF80936100CEE1C09385
:101F3000600084E190B39C7031F48150D9F7109225
:101F4000830010927D0080916600882309F445CEBD
:101F5000015009F042CE115009F03FCE30CEE19948
:101F6000FECF9FBB8EBBE09A99278DB30895262F95
:101F7000E199FECF9FBB8EBB2DBB0FB6F894E29AC2
:0C1F8000E19A0FBE01960895F894FFCF7F
:061F8C005AFF1E9307003E
:0400000300001800E1
:00000001FF
