:101800003BC06FC054C053C052C051C050C04FC045
:101810004EC04DC04CC04BC04AC049C048C047C074
:1018200046C045C044C009021200010100803209CF
:10183000040000000000000012011001FF00000879
:10184000C016DC050201010200010E035500530021
:1018500042006100730070001C037700770077007E
:101860002E00660069007300630068006C002E00A3
:10187000640065000403090411241FBECFE5D4E011
:10188000DEBFCDBF10E0A0E6B0E0EAE7FFE102C0B6
:1018900005900D92A636B107D9F720E0A6E6B0E094
:1018A00001C01D92AD39B207E1F73AD164C3A8CFA8
:1018B000A82FB92F80E090E041E050EA609530E039
:1018C00009C02D9182279795879510F08427952739
:1018D000305EC8F36F5FA8F30895EADF8D939D93A0
:1018E0000895CF93CFB7CF93DF93C395839BE9F749
:1018F000839B0BC0839B09C0839B07C0839B05C050
:10190000839B03C0839B01C089C06F93C0918000FB
:10191000DD27C957DF4F2F9365E5839B03C02F91C8
:101920006F91E6CF0F931F934F9320E040E15F93B9
:1019300000B30C7003FB27F93F9350E03BE039C044
:101940001C7040642F77012F5F5F1EC0406810B38A
:101950001C702F7752501FC0406400B32F770C705B
:10196000D1F15F5F00C023C0406210B32F771C70BD
:1019700091F15F5F00C025C00C701027515012F428
:101980005D5F0000115027952C3F10B3C8F61C7006
:101990000127015027952C3FC8F64227499300B3F1
:1019A0000C7010274F73115027952C3FA8F64695C1
:1019B000469510B31C7079F00127015027952C3FF4
:1019C00098F66B5A60F3315000B3B0F600C010E4E3
:1019D0001ABF002717C03B503195C31BD04010E4FD
:1019E0001ABF0881033CF9F00B34E9F020917E0026
:1019F0001981110F1213EDCF093651F10D3211F08B
:101A0000013E39F7009385003F915F914F911F91FF
:101A10000F912F916F91CAB7C6FD67CFDF91CF911C
:101A2000CFBFCF91189520918500222369F31091A3
:101A30008300112339F534303AF130938300209339
:101A40007F00109180003BE0311B309380001CC070
:101A5000009183000130B4F40AE53091600034FD58
:101A600014C000936000C3E7D0E013C0052710E066
:101A700000C0000002BB1AC0052710E0221F1DC0D5
:101A800010E021C04AE502C032ED432FC4E1D0E0AE
:101A900032E011B31C60939A02B311BB5CE020E802
:101AA00065E320FF052702BB279517951C3FF0F63D
:101AB0006695B8F7B1F720FF052702BB2795179564
:101AC0001C3FD0F62795179517FF052700001C3FF0
:101AD00002BBB0F629913A9519F7037F1091840063
:101AE000110FC651D04002BB11F010937E0010E4DC
:101AF0001ABF086011B3137F402F437F54E05A95FB
:101B0000F1F702BB11BB42BB7FCFF8941BBE15BEE1
:101B100081E08BBF1BBEE0917100F09172000995CE
:101B200088E10FB6F89481BD11BC0FBE84B788233D
:101B300019F004B601FE0EC014BE81E08BBF82E036
:101B40008BBF85B7826085BF8BB780648BBF8B9A54
:101B500080E008C0DADFA895EFE9FFE03197F1F700
:101B600000C000008150B9F78B987894F12CE12CDB
:101B700080918300835087FD5CC190918000CCE010
:101B8000D0E0C91BD109C957DF4F90917F009D322A
:101B900009F0C5C0883009F04AC183EC8093730016
:101BA0008AE58093600010926700888180762981A1
:101BB000882309F444C088E690E0909382008093E3
:101BC00081002330C9F49B818C812A81203339F430
:101BD0008370E82FF0E0EE59FF4F808109C0203A72
:101BE00011F4B4D105C0203C11F46D81B7D180E06F
:101BF00080936B0024E089C02530F9F0822F845057
:101C00008630A0F48A819B8190936D0080936C0054
:101C1000293009F410C08E8180936E008D8182700E
:101C200080936F00209370002FEF68C0223019F46A
:101C300081E08093660020E068C021E066C08A8170
:101C400010927C00211106C010927D008CE790E07C
:101C500022E04EC0253019F4809384003DC0263028
:101C6000A9F59B81913019F488E398E104C0923082
:101C700041F486E298E1909382008093810022E112
:101C800021C09330F1F4811108C084E798E190936A
:101C900082008093810024E015C0813041F488E502
:101CA00098E190938200809381002CE10BC08230F8
:101CB00041F48AE498E190938200809381002EE0C1
:101CC00001C020E080E48093670016C0283069F0EE
:101CD000293029F4809386008CE790E004C08CE7DB
:101CE00090E02A3021F020E003C086E890E021E077
:101CF00090938200809381002F3F39F4888187FD83
:101D00002E8180E88093670007C08F81811104C015
:101D10008E81821708F4282F2093610088C090914B
:101D2000670097FF84C090916E00D82E981708F432
:101D3000D92E9D1990936E00CC24C3949111C12C7F
:101D400080917000873010F4DE0168C08E010FC0F2
:101D5000F80161918F0180916C0090916D009C0160
:101D60002F5F3F4F30936D0020936C00F7D0802F92
:101D70008C1B8D1568F3C11058C059C080916C0040
:101D800090916D008F739927892BE1F0F894E09181
:101D90006C00F0916D008D919D9131E00C013093BC
:101DA0005700E8951124789480916C0090916D0013
:101DB000029690936D0080936C008F739927892B06
:101DC000C9F00EC0F894E0916C00F0916D0083E0D2
:101DD00080935700E895789407B600FCFDCFD6CFE6
:101DE000CC20E1F08A2F821B8D15C0F080916F000E
:101DF0008823A1F0F894E0916C00F0916D00329787
:101E000085E080935700E895789407B600FCFDCFF5
:101E1000F89481E180935700E89578942C2F8A2FCD
:101E20008C1B8D1508F4AACFA6CF109261001092DA
:101E300083008091600084FF73C0809161008F3FB8
:101E400009F46EC0D82E893010F098E0D92E8D1983
:101E5000809361008091730098E8892780937300D4
:101E6000DD2009F44BC08091670087FF28C0809176
:101E70006E008D1508F4D82E8D1980936E00C090D9
:101E80007000C4E7D0E014C000916C0010916D00A8
:101E900026E02C1518F4C80159D002C0F80184912D
:101EA000888321960F5F1F4F10936D0000936C0085
:101EB00084E790E0FC2FF81BFD1530F31CC0E09187
:101EC0008100F0918200A4E7B0E086FF09C0849110
:101ED0008D93319684E790E08D0D8A13F8CF07C07B
:101EE00081918D9384E790E08D0D8A13F9CFF09363
:101EF0008200E093810028E02D1560F06D2D84E7CD
:101F000090E0EBDC8D2D8C5F8C3041F09FEF909357
:101F1000610004C08FEF809361008EE180936000C8
:101F200084E190B39C7031F48150D9F71092840011
:101F300010927E0080916600882309F419CEEA94FD
:101F400009F016CEFA9409F013CE04CEE199FECF33
:101F50009FBB8EBBE09A99278DB30895262FE199F8
:101F6000FECF9FBB8EBB2DBB0FB6F894E29AE19AD1
:0A1F70000FBE01960895F894FFCF0C
:061F7A005AFF1E93070050
:0400000300001800E1
:00000001FF
