:1018000042C076C05BC05AC059C058C057C056C00D
:1018100055C054C053C052C051C050C04FC04EC03C
:101820004DC04CC04BC04AC049C048C047C046C06C
:1018300045C044C0090212000101008032090400C1
:1018400000000000000012011001FF000008C01697
:10185000DC050201010200010E03550053004200A5
:101860006100730070001C037700770077002E0082
:10187000660069007300630068006C002E0064005D
:1018800065000403090411241FBECFEFD4E0DEBFBE
:10189000CDBF11E0A0E0B1E0EEE7FFE102C00590AE
:1018A0000D92A630B107D9F721E0A6E0B1E001C062
:1018B0001D92AD33B207E1F732D15FC3A1CFA82F9C
:1018C000B92F80E090E041E050EA609530E009C037
:1018D0002D9182279795879510F084279527305E64
:1018E000C8F36F5FA8F30895EADF8D939D93089581
:1018F000CF93CFB7CF93DF93C3954B9BE9F74B9B28
:1019000011C04B9B0FC04B9B0DC04B9B0BC04B9B07
:1019100009C04B9B07C04B9B05C04B9B03C04B9B17
:1019200001C081C06F93C0912001DD27C95DDE4FEA
:101930002F9320E400C065E04B9B03C02F916F9173
:10194000DECF0F931F934F9345E55F9355E53F938C
:101950003BE014E009B10C702EC06A95C9F031501B
:10196000D8F109B10C7001130BC008942795299385
:1019700020E4555500F46A9569F701E069B10BC0A0
:10198000102F66E02695299320E4555518F3E2CFF1
:101990000FEF69B10000162F455500F0404066E09A
:1019A0001C700030E2F221F0000009B10C7003C09D
:1019B00009B10C70A9F0011309C00894279568F2C9
:1019C00000C06A95A9F700E069B1E5CF102F66E085
:1019D000269528F20000ECCF11E01CBB002717C0B1
:1019E0003B503195C31BD04011E01CBB0881033C28
:1019F000F9F00B34E9F020911E011981110F121337
:101A0000EDCF093651F10D3211F0013E39F7009357
:101A100025013F915F914F911F910F912F916F91F0
:101A2000CCB3C0FD69CFDF91CF91CFBFCF911895D7
:101A300020912501222369F310912301112329F517
:101A400034302AF13093230120931F01109120019B
:101A50003BE0311B309320011AC00091230101307B
:101A6000A4F40AE53091000134FD12C00093000196
:101A7000C3E1D1E011C0052710E000C00BB919C0C7
:101A8000052710E0221F00C01DC04AE502C032ED4C
:101A9000432FC4E1D0E032E01AB11C605B9A0BB175
:101AA0001AB95CE020E869E420FF05270BB9279507
:101AB000179500C000001C3FF0F66695A8F7A1F747
:101AC00020FF05270BB92795179500001C3FC0F68E
:101AD00029913A9541F7037F10912401110F0BB919
:101AE000C651D04011F010931E0111E01CBB0860DC
:101AF0001AB1137F402F437F55E05A95F1F70BB988
:101B00001AB94BB986CFF8941DBA1092690081E0DA
:101B100085BF15BEE0911101F0911201099588E190
:101B20000FB6F89480936000109260000FBE84B7E7
:101B3000882319F004B601FE0EC014BE81E085BFF3
:101B400082E085BF80916900826080936900E89A95
:101B5000539A80E008C0D7DFA895E7E8F3E1319712
:101B6000F1F700C000008150B9F753987894F12C38
:101B7000E12C80912301835087FD5CC1909120016D
:101B8000CCE0D0E0C91BD109C95DDE4F90911F01A7
:101B90009D3209F0C5C0883009F04AC183EC8093BA
:101BA00013018AE5809300011092070188818076F5
:101BB0002981882309F444C088E091E090932201B0
:101BC000809321012330C9F49B818C812A812033A9
:101BD00039F48370E82FF0E0EE5FFE4F808109C09A
:101BE000203A11F4B4D105C0203C11F46D81B7D175
:101BF00080E080930B0124E089C02530F9F0822F2A
:101C000084508630A0F48A819B8190930D0180934B
:101C10000C01293009F410C08E8180930E018D8152
:101C2000827080930F01209310012FEF68C0223043
:101C300019F481E08093060120E068C021E066C0CD
:101C40008A8110921C01211106C010921D018CE1A5
:101C500091E022E04EC0253019F4809324013DC06C
:101C60002630A9F59B81913019F486E498E104C0EF
:101C7000923041F484E398E1909322018093210112
:101C800022E121C09330F1F4811108C082E898E18B
:101C9000909322018093210124E015C0813041F40A
:101CA00086E698E190932201809321012CE10BC0FC
:101CB000823041F488E598E19093220180932101DC
:101CC0002EE001C020E080E48093070116C0283098
:101CD00069F0293029F4809326018CE191E004C059
:101CE0008CE191E02A3021F020E003C086E291E00F
:101CF00021E090932201809321012F3F39F48881C4
:101D000087FD2E8180E88093070107C08F818111B4
:101D100004C08E81821708F4282F2093010188C007
:101D20009091070197FF84C090910E01D82E9817CB
:101D300008F4D92E9D1990930E01CC24C3949111CF
:101D4000C12C80911001873010F4DE0168C08E0133
:101D50000FC0F80161918F0180910C0190910D01EC
:101D60009C012F5F3F4F30930D0120930C01F7D062
:101D7000802F8C1B8D1568F3C11058C059C08091FD
:101D80000C0190910D018F739927892BE1F0F89444
:101D9000E0910C01F0910D018D919D9131E00C01CC
:101DA00030935700E8951124789480910C0190911C
:101DB0000D01029690930D0180930C018F7399276A
:101DC000892BC9F00EC0F894E0910C01F0910D013F
:101DD00083E080935700E895789407B600FCFDCF28
:101DE000D6CFCC20E1F08A2F821B8D15C0F08091D8
:101DF0000F018823A1F0F894E0910C01F0910D01FE
:101E0000329785E080935700E895789407B600FCF8
:101E1000FDCFF89481E180935700E89578942C2FBA
:101E20008A2F8C1B8D1508F4AACFA6CF1092010122
:101E3000109223018091000184FF73C08091010101
:101E40008F3F09F46EC0D82E893010F098E0D92E5B
:101E50008D19809301018091130198E8892780935F
:101E60001301DD2009F44BC08091070187FF28C0D2
:101E700080910E018D1508F4D82E8D1980930E01D6
:101E8000C0901001C4E1D1E014C000910C01109188
:101E90000D0126E02C1518F4C80159D002C0F80134
:101EA0008491888321960F5F1F4F10930D0100933B
:101EB0000C0184E191E0FC2FF81BFD1530F31CC0F0
:101EC000E0912101F0912201A4E1B1E086FF09C077
:101ED00084918D93319684E191E08D0D8A13F8CF32
:101EE00007C081918D9384E191E08D0D8A13F9CF24
:101EF000F0932201E093210128E02D1560F06D2D73
:101F000084E191E0F1DC8D2D8C5F8C3041F09FEF0E
:101F10009093010104C08FEF809301018EE18093C3
:101F2000000184E199B19C7031F48150D9F710928D
:101F3000240110921E0180910601882309F419CE14
:101F4000EA9409F016CEFA9409F013CE04CEF9996A
:101F5000FECF92BD81BDF89A992780B50895262FAE
:101F6000F999FECF1FBA92BD81BD20BD0FB6F8947E
:0E1F7000FA9AF99A0FBE01960895F894FFCFE1
:061F7E005AFF1E930A0049
:0400000300001800E1
:00000001FF
