:107800005CC000008FC0000073C0000071C00000A9
:107810006FC000006DC000006BC0000069C00000B8
:1078200067C0000065C0000063C0000061C00000C8
:107830005FC000005DC000005BC0000059C00000D8
:1078400057C0000055C0000053C0000051C00000E8
:107850004FC000004DC000004BC0000049C00000F8
:1078600047C0000045C0000009021200010100806D
:107870003209040000000000000012011001FF00A6
:107880000008C016DC050201010200010E035500CC
:10789000530042006100730070001C037700770002
:1078A00077002E00660069007300630068006C00BA
:1078B0002E00640065000403090411241FBECFEFED
:1078C000D8E0DEBFCDBF11E0A0E0B1E0E6EDFFE71C
:1078D00002C005900D92A630B107D9F721E0A6E0CD
:1078E000B1E001C01D92AC33B207E1F770D171C3B2
:1078F00087CFA82FB92F80E090E041E050EA609553
:1079000030E009C02D9182279795879510F0842744
:107910009527305EC8F36F5FA8F30895EADF8D9373
:107920009D930895CF93CFB7CF93C3954B9BE9F722
:107930004B9B0BC04B9B09C04B9B07C04B9B05C08F
:107940004B9B03C04B9B01C0C0C0C0911F01DF9384
:10795000DD27CA5DDE4F2F932FEF4B9B03C02F9186
:10796000DF91E6CF0F931F934F936F9309B103FB02
:1079700020F93F933BE05F931EC04E7F012F19B16A
:107980001C70E1F0216000001DC0102F4D7F2260AF
:10799000000009B10C7091F01DC04B7F2460012FD5
:1079A000000019B11C7051F01EC019B11C7031F0EB
:1079B000477F28601BC019B11C7009F462C04FEFEB
:1079C000297FD9F2012703FB21F909B10C70B1F32A
:1079D000237FD9F2102713FB22F900C019B11C70C4
:1079E00069F3277ED1F2012703FB23F92F7CE9F20B
:1079F00009B10C7019F3102713FB24F92F7929F121
:107A000000C019B11C70E9F1012703FB25F92F73A0
:107A100011F100C009B10C70A1F1102713FB26F978
:107A20002230F8F000C019B11C7059F1012703FB96
:107A300027F92430E0F04227000009B149931027CC
:107A400013FB20F93150C8F0B6CF4F7E09B10C704E
:107A5000C1F02061D3CF206219B11C7091F04F7D2D
:107A6000D6CF4F7B09B10C7061F02064D9CF4F772E
:107A700019B11C7031F02068DCCF11E01CBB00276D
:107A800017C03B503195C31BD04011E01CBB08818F
:107A9000033CF9F00B34E9F020911D011981110F1D
:107AA0001213EDCF093651F10D3211F0013E39F7C5
:107AB000009324015F913F916F914F911F910F911E
:107AC0002F91DF91CCB3C0FD30CFCF91CFBFCF91FD
:107AD000189520912401222369F31091220111238A
:107AE00031F5343032F13093220120931E01109190
:107AF0001F013BE0311B30931F011BC0009122018D
:107B00000130ACF40AE53091000134FD13C000935C
:107B10000001C2E1D1E012C005271127000019C001
:107B2000052711271FC005271127000024C04AE59B
:107B300002C032ED432FC4E1D0E032E01AB11C6044
:107B40005B9A0BB11AB95CE020E866E020FF0527DC
:107B500027950BB917951C3FF8F66A95B9F720FFE2
:107B60000527279500000BB917951C3FC8F620FF85
:107B700005272795179566E01C3F0BB9A0F62991BC
:107B80003A9521F7037F10912301110F0BB9C651CC
:107B9000D04011F010931D0111E01CBB08601AB118
:107BA000137F402F437F53E05A95F1F700C00BB984
:107BB0001AB94BB97FCFF8941DBA1092690081E0D1
:107BC00085BF15BEE0911001F0911101099588E182
:107BD0000FB6F89480936000109260000FBE84B7D7
:107BE000882319F004B601FE0EC014BE81E085BFE3
:107BF00082E085BF80916900826080936900E89A85
:107C0000539A80E008C0D7DFA895E5EAFEE03197F7
:107C1000F1F700C000008150B9F75398789410E054
:107C200000E020912201235027FD3CC180911F01DB
:107C3000CCE0D0E0C81BD109CA5DDE4F80911E01A7
:107C40008D3209F0C3C0283009F02AC183EC80933B
:107C500012018AE5809300011092070188818076E5
:107C60002981882309F442C088E091E090932101A2
:107C7000809320012330C9F49B818C812A81203399
:107C800039F48370E82FF0E0EE5FFE4F808109C089
:107C9000203A11F488D105C0203C11F46D818BD1BC
:107CA00080E080930B0124E087C02530E9F0822F2B
:107CB0008450863090F48A819B8190930D0180934B
:107CC0000C01293009F40EC08E8180930E018D8144
:107CD000827080930F012FEF68C0223019F481E089
:107CE0008093060120E068C021E066C08A8110927E
:107CF0001B01211106C010921C018BE191E022E0D2
:107D00004EC0253019F4809323013DC02630A9F5DB
:107D10009B81913019F48AE798E704C0923041F4CE
:107D200088E698E7909321018093200122E121C009
:107D30009330F1F4811108C086EB98E7909321010C
:107D40008093200124E015C0813041F48AE998E74E
:107D500090932101809320012CE10BC0823041F4EB
:107D60008CE898E790932101809320012EE001C0D8
:107D700020E080E48093070116C0283069F02930A4
:107D800029F4809325018BE191E004C08BE191E01F
:107D90002A3021F020E003C085E291E021E09093B9
:107DA0002101809320012F3F39F4888187FD2E81A6
:107DB00080E88093070107C08F81811104C08E8104
:107DC000821708F4282F209301016AC080910701CF
:107DD00087FF66C080910E01821708F4282F821B4E
:107DE00080930E0131E0811130E0DE0150C08091BE
:107DF0000C0190910D018F779927892BE1F0F89470
:107E0000E0910C01F0910D018D919D9151E00C01DB
:107E100050935700E8951124789480910C0190912B
:107E20000D01029690930D0180930C018F77992795
:107E3000892BC9F00EC0F894E0910C01F0910D016E
:107E400083E080935700E895789407B600FCFDCF57
:107E5000D6CF3323E1F08A2F841B8217C0F08091A4
:107E60000F018823A1F0F894E0910C01F0910D012D
:107E7000329785E080935700E895789407B600FC28
:107E8000FDCFF89481E180935700E89578944C2FCA
:107E90008A2F8C1B821708F4AACF3111109201018E
:107EA000109222018091000184FF67C0809101013E
:107EB0008F3F09F462C0C82F893008F0C8E08C1BDE
:107EC000809301018091120198E889278093120123
:107ED000CC2309F441C08091070187FF1FC0809126
:107EE0000E018C1708F4C82F8C1B80930E01E091B3
:107EF0000C01F0910D01A3E1B1E003C0E491ED9319
:107F0000FC01CF01019623E131E04A2F421B4C17BF
:107F1000A8F3F0930D01E0930C011CC0E091200147
:107F2000F0912101A3E1B1E086FF09C084918D9316
:107F3000319683E191E08C0F8A13F8CF07C08191CD
:107F40008D9383E191E08C0F8A13F9CFF093210197
:107F5000E0932001C93058F46C2F83E191E0DEDC1E
:107F6000CC5FCC3041F08FEF8093010104C08FEFE4
:107F700080930101CEE1C093000184E199B19C702E
:107F800031F48150D9F71092230110921D01809194
:107F90000601882309F445CE015009F042CE115064
:107FA00009F03FCE30CEF999FECF92BD81BDF89A4F
:107FB000992780B50895262FF999FECF1FBA92BD53
:107FC00081BD20BD0FB6F894FA9AF99A0FBE0196BA
:067FD0000895F894FFCFB4
:067FD6005AFF1E950F008A
:040000030000780081
:00000001FF
