:1018000042C076C05BC05AC059C058C057C056C00D
:1018100055C054C053C052C051C050C04FC04EC03C
:101820004DC04CC04BC04AC049C048C047C046C06C
:1018300045C044C0090212000101008032090400C1
:1018400000000000000012011001FF000008C01697
:10185000DC050201010200010E03550053004200A5
:101860006100730070001C037700770077002E0082
:10187000660069007300630068006C002E0064005D
:1018800065000403090411241FBECFEFD4E0DEBFBE
:10189000CDBF11E0A0E0B1E0EAE6FFE102C00590B3
:1018A0000D92A630B107D9F721E0A6E0B1E001C062
:1018B0001D92AC33B207E1F754D155C3A1CFA82F85
:1018C000B92F80E090E041E050EA609530E009C037
:1018D0002D9182279795879510F084279527305E64
:1018E000C8F36F5FA8F30895EADF8D939D93089581
:1018F000CF93CFB7CF93C3954B9BE9F74B9B09C0D1
:101900004B9B07C04B9B05C04B9B03C04B9B01C02F
:10191000A1C0DF93C0911F01DD27CA5DDE4F4B9B45
:1019200002C0DF91EBCF2F930F931F9309B12FEFDD
:1019300003FB20F94F933F9319B14FEF012703FBAE
:1019400021F93BE031C04E7F012F19B1216028C041
:10195000102F4D7F2260000009B129C04B7F246009
:10196000012F000019B12BC019B1477F28602AC090
:101970004F7E09B120612CC04F7D19B120622FC06C
:101980004F7B09B1206432C0422709B149934FEF20
:101990000000102713FB20F919B11C70C9F1297F31
:1019A00091F2012703FB21F909B1237F89F231501C
:1019B00058F1102713FB22F919B1277E79F201277C
:1019C00003FB23F92F7C81F209B1102713FB24F9C3
:1019D0002F7971F200C019B1012703FB25F92F738C
:1019E00059F200C009B1102713FB26F9223040F24A
:1019F00000C019B1012703FB27F9243028F64F77DF
:101A0000206819B10000F9CF11E01CBB002717C0F6
:101A10003B503195C31BD04011E01CBB0881033CF7
:101A2000E9F00B34D9F020911D011981110F121327
:101A3000EDCF093641F10D3211F0013E39F7009337
:101A400024013F914F911F910F912F91DF91CCB3C2
:101A5000C0FD51CFCF91CFBFCF91189520912401D8
:101A6000222379F310912201112311F5343012F160
:101A70003093220120931E0110911F013BE0311B86
:101A800030931F0117C00091220101308CF40AE548
:101A90003091000134FD10C000930001C2E1D1E09B
:101AA0000FC02795A8F45150A9F4220F0000F9CFD8
:101AB0004AE503C042ED01C0432FC4E1D0E032E06B
:101AC0001AB11C605B9A1AB90BB120E41CE05F9359
:101AD000012756E00BB9279520F4515021F4220F2D
:101AE000F9CF012756E000003B5A0BB9D0F22795F9
:101AF00028F4515029F4220F0000F9CF012756E0B5
:101B000027950BB920F4515021F4220FF9CF01276A
:101B100056E0299133230BB921F6037F109123015D
:101B2000110FC651D0400BB911F010931D0111E0F7
:101B30001CBB08601AB1137F402F437F5F9100C028
:101B400000C00BB91AB94BB97CCFF8941DBA1092EA
:101B5000690081E085BF15BEE0911001F09111018F
:101B6000099588E10FB6F8948093600010926000A8
:101B70000FBE84B7882319F004B601FE0EC014BE50
:101B800081E085BF82E085BF80916900826080939B
:101B90006900E89A539A80E008C0D7DFA895E7EB80
:101BA000FBE03197F1F700C000008150B9F753987E
:101BB000789410E000E020912201235027FD3CC1E1
:101BC00080911F01CCE0D0E0C81BD109CA5DDE4F77
:101BD00080911E018D3209F0C3C0283009F02AC15E
:101BE00083EC809312018AE5809300011092070133
:101BF000888180762981882309F442C088E091E0B9
:101C000090932101809320012330C9F49B818C8122
:101C10002A81203339F48370E82FF0E0EE5FFE4F25
:101C2000808109C0203A11F488D105C0203C11F40C
:101C30006D818BD180E080930B0124E087C025303B
:101C4000E9F0822F8450863090F48A819B819093B2
:101C50000D0180930C01293009F40EC08E81809310
:101C60000E018D81827080930F012FEF68C02230AA
:101C700019F481E08093060120E068C021E066C08D
:101C80008A8110921B01211106C010921C018BE168
:101C900091E022E04EC0253019F4809323013DC02D
:101CA0002630A9F59B81913019F486E498E104C0AF
:101CB000923041F484E398E19093210180932001D4
:101CC00022E121C09330F1F4811108C082E898E14B
:101CD000909321018093200124E015C0813041F4CC
:101CE00086E698E190932101809320012CE10BC0BE
:101CF000823041F488E598E190932101809320019E
:101D00002EE001C020E080E48093070116C0283057
:101D100069F0293029F4809325018BE191E004C01A
:101D20008BE191E02A3021F020E003C085E291E0D0
:101D300021E090932101809320012F3F39F4888185
:101D400087FD2E8180E88093070107C08F81811174
:101D500004C08E81821708F4282F209301016AC0E5
:101D60008091070187FF66C080910E01821708F4F9
:101D7000282F821B80930E0131E0811130E0DE01BB
:101D800050C080910C0190910D018F739927892B80
:101D9000E1F0F894E0910C01F0910D018D919D918D
:101DA00051E00C0150935700E895112478948091EC
:101DB0000C0190910D01029690930D0180930C01FE
:101DC0008F739927892BC9F00EC0F894E0910C010C
:101DD000F0910D0183E080935700E895789407B661
:101DE00000FCFDCFD6CF3323E1F08A2F841B82176E
:101DF000C0F080910F018823A1F0F894E0910C01CC
:101E0000F0910D01329785E080935700E895789422
:101E100007B600FCFDCFF89481E180935700E89568
:101E200078944C2F8A2F8C1B821708F4AACF31117B
:101E300010920101109222018091000184FF67C07D
:101E4000809101018F3F09F462C0C82F893008F0EA
:101E5000C8E08C1B809301018091120198E88927CA
:101E600080931201CC2309F441C08091070187FFC0
:101E70001FC080910E018C1708F4C82F8C1B809313
:101E80000E01E0910C01F0910D01A3E1B1E003C05E
:101E9000E491ED93FC01CF01019623E131E04A2F5B
:101EA000421B4C17A8F3F0930D01E0930C011CC0EA
:101EB000E0912001F0912101A3E1B1E086FF09C08A
:101EC00084918D93319683E191E08C0F8A13F8CF42
:101ED00007C081918D9383E191E08C0F8A13F9CF34
:101EE000F0932101E0932001C93058F46C2F83E175
:101EF00091E0FADCCC5FCC3041F08FEF80930101B0
:101F000004C08FEF80930101CEE1C093000184E112
:101F100099B19C7031F48150D9F71092230110923D
:101F20001D0180910601882309F445CE015009F076
:101F300042CE115009F03FCE30CEF999FECF92BD7E
:101F400081BDF89A992780B50895262FF999FECF7B
:101F50001FBA92BD81BD20BD0FB6F894FA9AF99AC6
:0A1F60000FBE01960895F894FFCF1C
:061F6A005AFF1E930A005D
:0400000300001800E1
:00000001FF
